:020000040800F2
:1000000000000220D90E0008210F0008210F00086F
:10001000210F0008210F0008210F00080000000038
:10002000000000000000000000000000210F000898
:10003000210F000800000000210F0008210F000818
:10004000210F0008210F0008210F0008210F0008D0
:10005000210F0008210F000871030008210F00087C
:1000600095030008210F0008210F0008210F000848
:10007000210F0008210F0008210F0008210F0008A0
:10008000210F0008210F0008210F0008210F000890
:10009000210F0008210F0008210F0008210F000880
:1000A000210F0008210F0008210F0008210F000870
:1000B000210F0008210F0008210F0008210F000860
:1000C000210F0008210F0008210F0008210F000850
:1000D000210F0008210F0008210F0008210F000840
:1000E000210F0008210F0008210F0008210F000830
:1000F000210F0008210F0008210F0008210F000820
:10010000210F0008210F0008210F0008210F00080F
:10011000210F0008210F0008210F0008210F0008FF
:10012000210F0008210F0008210F0008210F0008EF
:10013000210F0008210F0008210F0008210F0008DF
:10014000210F0008210F0008210F0008210F0008CF
:10015000210F0008210F0008210F0008210F0008BF
:10016000210F0008210F0008210F0008210F0008AF
:10017000210F0008210F0008210F0008210F00089F
:08018000210F0008210F000807
:10018800134B002B08BF114B9D46A3F5803A002165
:100198008B460F461148124A121A00F017FF0D4BF2
:1001A800002B00D098470C4B002B00D0984700201C
:1001B800002104000D000B4800F0B0FE00F0DEFE48
:1001C8002000290000F066FE00F0AEFE00000800E6
:1001D8000000000000000000000000005C04002097
:1001E80080040020510F00080649074B0A680132B5
:1001F800A3FB02039B0803EB4303A2EB43030B603F
:10020800704700BF5C040020ABAAAAAA0649074BA6
:100218000A680132A3FB02039B0803EB4303A2EB2A
:1002280043030B60704700BF00000020ABAAAAAAD6
:10023800084B09481B68094A0133A0FB03108008D2
:10024800126800EB4000A3EB4000801AB0FA80F07F
:10025800400970475C040020ABAAAAAA000000204D
:10026800084B09481B68094A0233A0FB03108008A1
:10027800126800EB4000A3EB4000801AB0FA80F04F
:10028800400970475C040020ABAAAAAA000000201D
:10029800F0B5012187B0082000F0E8FA01214FF4F9
:1002A800804000F013FB01210846002400F0DEFA2C
:1002B800012502A94FF470430326294802938DF8BB
:1002C8000D6002278DF80C508DF80E408DF80F4008
:1002D80000F0CAFC052302A9224802938DF80D609C
:1002E8008DF80C408DF80E408DF80F7000F0BCFCB6
:1002F8002146204600F076FD082604A804958DF8CE
:1003080016508DF814408DF8156000F0AFFB0623E9
:1003180001A88DF804308DF805408DF806508DF849
:10032800075000F005F93946204600F05BFD04232C
:1003380004A804938DF816508DF814408DF81560B4
:1003480000F094FB01A88DF804608DF805408DF845
:1003580006508DF8075000F0EBF807B0F0BD00BF6D
:10036800000C02400000024008B5012000F0DCFB50
:1003780000B908BD044A1368012003441360BDE8AE
:10038800084000F0DFBB00BF7C04002008B5042053
:1003980000F0CAFB00B908BD044A1368013B1360AA
:1003A8000420BDE8084000F0CDBB00BF7C0400205D
:1003B800354B36481A68002142F001021A609960EC
:1003C8001A6822F0847222F480321A6058601A681F
:1003D80082B022F480221A60D960009101911A68D3
:1003E80042F480321A601A4603E0009BB3F5A06F0E
:1003F80009D0136803F400330193009B0133009381
:10040800019B002BF1D0204B1B6813F4003318BF5D
:1004180001230193019B012B05D01D4B4FF0006276
:100428009A6002B07047184B1A491A6C1A4842F081
:1004380080521A640A6842F480420A609A689A6094
:100448009A6842F400429A609A6842F4A0529A600C
:1004580058601A6842F080721A601A689201FCD5D6
:100468000E49094A40F205600860996821F00301C5
:100478009960996841F002019960936803F00C0350
:10048800082BFAD1C9E700BF003802401030002419
:1004980000ED00E00070004008544007003C0240B6
:1004A800154A936803F00C03042B23D0082B09D0BA
:1004B800124B114A12499268C2F303128A5CD34064
:1004C8000B6170475068516852684302C2F3881242
:1004D80001F03F014CBF0B4B084BB3FBF1F303FB9F
:1004E80002F3054A5268C2F3014201325200B3FBDB
:1004F800F2F3DEE7034BDCE7003802400024F400A7
:100508000400002040787D0130120008000000201F
:10051800580400205C0400208004002040F0BF60E4
:10052800024B40F40030D860704700BF00ED00E097
:10053800C3785BB9037816485A09203203F01F03C1
:10054800012101FA03F340F822307047114A70B4D0
:10055800D2684378867801780D48D243C2F30222E4
:10056800C2F10405EDB20F24AB4044FA02F2324066
:10057800DBB2134344181B0101F01F05012249098E
:10058800DBB2AA4084F8003370BC40F821207047E1
:1005980000E100E000ED00E021F0604121F07F0182
:1005A800014B01439960704700ED00E029B9054A05
:1005B800136923EA000010617047024B1A6910435F
:1005C8001861704700ED00E0044A136804280CBF66
:1005D80043F0040323F004031360704710E000E0C5
:1005E8000A4B0B481A68002142F001021A60996010
:1005F8001A6822F0847222F480321A6058601A68ED
:1006080022F480221A60D960704700BF0038024087
:1006180010300024024B00221A701870704700BF77
:100628000238024082B000230A4A019302E0B3F57F
:10063800A06F08D0136813F4003F019B03F1010376
:100648000193019BF3D0034B1868C0F3404002B0FC
:10065800704700BF00380240034A136823F0F803CC
:1006680043EAC0001060704700380240014B186030
:10067800704700BF00004742064B002201281A704D
:100688001A7005D0042802D105221A7070477047E5
:100698001870704770380240014B1860704700BFEF
:1006A800800E474230B4029C064D40EA04605B0865
:1006B8000843013B40EA821040EA0340686030BCCE
:1006C800704700BF00380240014B1860704700BFF8
:1006D800600047420907034B41EA8011C3F88410C0
:1006E800704700BF00380240014B1860704700BFD8
:1006F80068004742014B1860704700BF4C004742F2
:10070800034A936823F0EC631943014391607047EF
:1007180000380240034A936823F0784319430143A1
:100728009160704700380240034A936823F003033E
:1007380018439060704700BF00380240024B986829
:1007480000F00C00704700BF00380240034A93686D
:1007580023F0F00318439060704700BF0038024050
:10076800034A936823F4E05318439060704700BF2E
:1007780000380240034A936823F4604343EAC00008
:1007880090607047003802401F4A936803F00C03DA
:10079800042B10B41BD0082B1CD01C4B03601A4A26
:1007A8001B499468C4F303140C5DE34043609468E8
:1007B800C4F382240C5D23FA04F4846092685DF823
:1007C800044BC2F342328A5CD340C3607047114B7A
:1007D8000360E4E75468516852686302C2F3881200
:1007E80001F03F014CBF0B4B084BB3FBF1F303FB8C
:1007F80002F3054A5268C2F3014201325200B3FBC8
:10080800F2F30360CBE700BF003802400024F40095
:100818001800002040787D0100F44073B3F5407F54
:1008280009D108498A6820F0704322F4F81223F4A9
:10083800407313438B60034B1A6FC0F30B001043D4
:100848001867704700380240014B1860704700BFB6
:100858003C0E4742014B1860704700BF400E4742AC
:10086800014B1860704700BF5C014742044A136B94
:1008780019B923EA000010637047184310637047E2
:1008880000380240044A536B19B923EA0000506348
:10089800704718435063704700380240044A936B0E
:1008A80019B923EA000090637047184390637047B2
:1008B80000380240044A136C19B923EA0000106496
:1008C800704718431064704700380240044A536C5C
:1008D80019B923EA00005064704718435064704700
:1008E80000380240044A136919B923EA000010616C
:1008F800704718431061704700380240044A536932
:1009080019B923EA000050617047184350617047D5
:1009180000380240044A936919B923EA000090613B
:10092800704718439061704700380240044A136AC0
:1009380019B923EA00001062704718431062704723
:1009480000380240044A536A19B923EA0000506289
:10095800704718435062704700380240044A136DCC
:1009680019B923EA000010657047184310657047ED
:1009780000380240044A536D19B923EA0000506553
:10098800704718435065704700380240044A936D19
:1009980019B923EA000090657047184390657047BD
:1009A80000380240044A136E19B923EA00001066A1
:1009B800704718431066704700380240044A536E67
:1009C80019B923EA0000506670471843506670470B
:1009D80000380240044A137819B923EA000010705D
:1009E80070471843107070470D3802404309012BB7
:1009F8000BD0022B094B0CBF1B6F5B6F00F01F0065
:100A080023FA00F000F001007047044B1B6800F067
:100A18001F0023FA00F000F0010070470038024080
:100A2800024A536F43F0807353677047003802409F
:100A3800034BDB68184214BF01200020704700BF39
:100A480000380240014B1870704700BF0E38024052
:100A5800044B054900221A605A609A60DA605961AD
:100A6800704700BF003C0140FFFF7F00837933B32C
:100A78001C4B0279417970B404681E68E5432E4026
:100A88001E605E6802F1804202F59E3235405D606C
:100A980015682C43146002689C68D04304409C602D
:100AA800DC68102900EA0400D86013D001F1804303
:100AB80003F59E3370BC19680A431A6070470379BE
:100AC800016803F1804303F59E331A6822EA0102A4
:100AD8001A607047996811439960D9680A43DA60C7
:100AE80070BC7047003C014000230C224271036037
:100AF80003718371704700BF024A1369184310617C
:100B0800704700BF003C0140034B5B69034214BFC0
:100B180001200020704700BF003C0140014B586194
:100B2800704700BF003C0140054B1A685B690340F1
:100B380004D0024214BF01200020704718467047B5
:100B4800003C0140014B5861704700BF003C014028
:100B580008B53C4B984224D03B4B98422BD03B4B9A
:100B6800984232D03A4B984239D03A4B984240D0CA
:100B7800394B984247D0394B98424ED0384B98421F
:100B880055D0384B984200D008BD01214FF48070F1
:100B9800FFF7A8FE00214FF48070BDE80840FFF77A
:100BA800A1BE01210846FFF79DFE00210120BDE8F6
:100BB8000840FFF797BE01210220FFF793FE0021AE
:100BC8000220BDE80840FFF78DBE01210420FFF791
:100BD80089FE00210420BDE80840FFF783BE0121FB
:100BE8000820FFF77FFE00210820BDE80840FFF736
:100BF80079BE01211020FFF775FE00211020BDE805
:100C08000840FFF76FBE01212020FFF76BFE00218F
:100C18002020BDE80840FFF765BE01214020FFF70E
:100C280061FE00214020BDE80840FFF75BBE0121BE
:100C38008020FFF757FE00218020BDE80840FFF71D
:100C480051BE00BF000002400004024000080240FC
:100C5800000C02400010024000140240001802403C
:100C6800001C02400020024000222DE9F0471346F4
:100C7800D1F800E001274FF0030C04E00133102BFA
:100C880002F1020229D007FA03F434EA0E05F5D17D
:100C9800D0F800800E790CFA02F5ED4308EA050851
:100CA800C0F80080D0F800A006FA02F9013E49EA2F
:100CB8000A09012E0CFA02F8C0F800900FD9C5688D
:100CC800CC7925EA0805C560C568944001332C43F2
:100CD800102BC46002F10202D5D1BDE8F087D0F82C
:100CE80008904E7905EA09058560D0F808908D7955
:100CF800964046EA09068660466826EA0404446087
:100D0800466805FA03F4A4B234434460D7E700BF49
:100D180000234FF6FF720260037143718371C37140
:100D2800704700BF82B04FF480330193019B0B439F
:100D38000193019BC361C161019BC361C3690193B5
:100D4800C369019302B070470369194214BF0120B7
:100D580000207047006980B2704700BF436919429C
:100D680014BF012000207047406980B2704700BF5F
:100D780001837047418370470AB9418370470183F3
:100D8800704700BF416170474369594041617047EE
:100D9800CB0800EB830001F0070110B4036A890057
:100DA8000F248C4023EA04030362036A5DF8044BB2
:100DB80002FA01F119430162704700BF08B5012129
:100DC8004FF48040FFF7BEFD00214FF48040BDE89E
:100DD8000840FFF7B7BD00BF014B1860704700BF60
:100DE8000038014001F0FC0303F1804303F59C3314
:100DF80001F0030110B49A6889000F248C4022EA9C
:100E080004029A609A685DF8044B00FA01F11143F4
:100E180099607047014B1860704700BFDC0027429B
:100E2800014B1860704700BF00042742024B186A44
:100E3800C0F30020704700BF0038014010B5054CD2
:100E4800227832B9044B13B10448AFF30080012370
:100E5800237010BD6004002000000000001200088C
:100E6800074B10B51BB107490748AFF30080074887
:100E7800036823B1064B13B1BDE81040184710BDF5
:100E8800000000006404002000120008580400203C
:100E98000000000008B5FFF7FBF90B4D0B4C2B6861
:100EA80001E0022B09D0012BFBD14FF40041204671
:100EB800FFF75EFF2B68022BF5D14FF40041204667
:100EC800FFF758FFEBE700BF7C040020000C02404E
:100ED800002103E00B4B5B58435004310A480B4B8D
:100EE80042189A42F6D30A4A02E0002342F8043B29
:100EF800084B9A42F9D3FFF75BFA00F03FF8FFF787
:100F0800C9FF704730120008000000205804002074
:100F18005C04002080040020FEE700000023014656
:100F28001A46184600F0A0B808B50021044600F09B
:100F3800F7F8044B1868C36B03B19847204600F0D4
:100F480069F900BFFC11000838B50A4C0A4D641B4A
:100F5800A4100AD004F18043013B05EB8305013C52
:100F680055F804399847002CF9D1BDE8384000F00D
:100F78004BB900BF301200082C12000870B50F4E94
:100F88000F4D761BB61018BF002405D0013455F854
:100F9800043B9847A642F9D10A4E0B4D761B00F048
:100FA8002DF9B61018BF002406D0013455F8043BBB
:100FB8009847A642F9D170BD70BD00BF2412000841
:100FC800241200082C1200082412000870B48607A6
:100FD80046D0541E002A41D0CAB2034602E014F19A
:100FE800FF343BD303F8012B9D07F8D1032C2ED9EE
:100FF800CDB245EA05250F2C45EA054519D903F177
:1010080010022646103E0F2E42F8105C42F80C5C87
:1010180042F8085C42F8045C02F11002F2D8A4F12C
:10102800100222F00F0204F00F041032032C1344B4
:101038000DD91E462246043A032A46F8045BFAD81C
:10104800221F22F003020432134404F003042CB1DB
:10105800C9B21C4403F8011B9C42FBD170BC704709
:1010680014460346C2E700BF2DE9F047254C256822
:10107800D5F848410646884692469946C4B3606802
:101088001F2817DC431C76B104EB80050122C5F844
:1010980088A0D4F8881182401143022EC4F8881120
:1010A800C5F808911ED00230636044F82080002003
:1010B800BDE8F087144B03B34FF4C870AFF300805A
:1010C8000446D0B1D5F84831002780E88800C5F833
:1010D800484138460123C4F88871C4F88C71002E41
:1010E800E1D0D1E7D4F88C110A43C4F88C21DAE7AF
:1010F80005F5A674C5F84841C1E74FF0FF30BDE8D3
:10110800F08700BFFC11000800000000024B13B17B
:101118000248FFF703BF704700000000510F0008A6
:101128002DE9F04F314B85B01B68029303F5A4738A
:1011380001900E460393029BD3F8487137B3DDF84C
:101148000CA04FF00109D3467C68651E0ED401340B
:1011580007EB84044FF00008DEB1D4F800319E425A
:1011680017D0013D6B1CA4F10404F5D1204B6BB1E1
:101178007B68002B35D13B6843B13846CBF800304B
:10118800AFF30080DBF80070002FDDD105B0BDE8BB
:10119800F08F7B682268013BAB420CBF7D60C4F8CE
:1011A8000080002ADDD0D7F88811D7F804A009FA02
:1011B80005F30B420FD0D7F88C110B420DD1D4F8A0
:1011C8008010019890477B685345B4D1DBF8003014
:1011D800BB42C6D0AFE79047F5E7D4F88000904708
:1011E800F1E7BB463F68002FAED1CFE7FC110008FE
:1011F800000000003000002000000000F8B500BF2B
:10120800F8BC08BC9E467047F8B500BFF8BC08BCDF
:041218009E46704737
:08121C006CEFFF7F01000000F0
:0812240015110008690E000815
:04122C00450E000863
:1012300001000000000000000000000001020304A3
:1012400006070809007A030A0000000001020304EF
:101250000102030406070809000000003000002016
:10126000000000001C03002084030020EC03002089
:10127000000000000000000000000000000000006E
:10128000000000000000000000000000000000005E
:10129000000000000000000000000000000000004E
:1012A000000000000000000000000000000000003E
:1012B000000000000000000000000000000000002E
:1012C000000000000000000000000000000000001E
:1012D000000000000000000000000000000000000E
:1012E00000000000000000000000000000000000FE
:1012F00000000000000000000000000000000000EE
:1013000000000000000000000100000000000000DC
:101310000E33CDAB34126DE6ECDE05000B000000A1
:1013200000000000000000000000000000000000BD
:1013300000000000000000000000000000000000AD
:10134000000000000000000000000000000000009D
:10135000000000000000000000000000000000008D
:04168800000000005E
:0400000508000ED908
:00000001FF
